:1000000012C038C018C017C016C015C014C013C025
:1000100012C011C010C00FC00EC00DC00CC00BC06C
:100020000AC009C008C011241FBECFE5D4E0DEBF5E
:10003000CDBF6DD0F1C0E4CF86B1876886B9089591
:100040003498369A3699FECF24B135B1822F932F4A
:100050000895B99A08958FB582688FBD84EC98E0B1
:1000600097BD86BD80E790E09BBD8ABD8EB58B6154
:100070008EBD08951F920F920FB60F9211240F900C
:100080000FBE0F901F9018954F925F926F927F92C4
:10009000AF92BF92CF92DF92EF92FF920F931F9396
:1000A000CF93DF93CDB7DEB729013A019B01AC01B5
:1000B000241935094609570989899A89AB89BC8968
:1000C000BC01CD016A197B098C099D0943D0A801A7
:1000D000970124193509460957094BD089019A011E
:1000E0000A0D1B1D2C1D3D1D602F712F822F932F7C
:1000F000DF91CF911F910F91FF90EF90DF90CF9004
:10010000BF90AF907F906F905F904F900895A1DF68
:1001100093DFA1DFCAEF94DFBC0180E090E01F9283
:100120001F921F92CF930F2EF0E7AF2EB12CC12C50
:10013000D12CF02DE12C14E0F12E00E010E020E0B5
:1001400030E0A901A1DF0F900F900F900F907BBDC1
:100150006ABDE1CFDB018F939F9326D0BF91AF9112
:10016000A29F800D911DA39F900DB29F900D112411
:100170000895052E97FB16F4009406D057FD0CD079
:100180001DD007FC09D07EF49095809570956195FF
:100190007F4F8F4F9F4F08955095409530952195F3
:1001A0003F4F4F4F5F4F08952BD0A59F900DB49FA9
:1001B000900DA49F800D911D11240895A1E21A2E87
:1001C000AA1BBB1BFD010DC0AA1FBB1FEE1FFF1FFB
:1001D000A217B307E407F50720F0A21BB30BE40B4B
:1001E000F50B661F771F881F991F1A9469F7609592
:1001F0007095809590959B01AC01BD01CF0108954C
:10020000A29FB001B39FC001A39F01D0B29F700D08
:0C021000811D1124911D0895F894FFCF6A
:00000001FF
