:100000000C9434000C9484000C9449000C94490026
:100010000C9449000C9449000C9449000C9449003C
:100020000C9449000C9449000C9449000C9449002C
:100030000C9449000C9449000C9449000C9449001C
:100040000C9449000C9449000C9449000C9449000C
:100050000C9449000C9449000C9449000C944900FC
:100060000C9449000C94490011241FBECFEFD8E036
:10007000DEBFCDBF11E0A0E0B1E0EEECF2E002C0E7
:1000800005900D92A030B107D9F70E94D3000C94CF
:1000900065010C94000087E880937A0081E08093EA
:1000A0007C000895EAE7F0E080818F7E8083808184
:1000B00080648083808186FDFDCF8091780090915F
:1000C0007900682F792F80E090E008958FEF84B950
:1000D00015B80895E0E8F0E0808182608083808137
:1000E000806880838AE998E09093870080938600F7
:1000F00085EB90E09093890080938800E1E8F0E040
:1001000080818B61808308951F920F920FB60F92AA
:1001100011240F900FBE0F901F9018954F925F9271
:100120006F927F92AF92BF92CF92DF92EF92FF9247
:100130000F931F93CF93DF93CDB7DEB729013A0119
:100140009B01AC01241935094609570989899A8907
:10015000AB89BC89BC01CD016A197B098C099D0959
:100160000E940001A8019701241935094609570981
:100170000E94100189019A010A0D1B1D2C1D3D1DB5
:10018000602F712F822F932FDF91CF911F910F91AD
:10019000FF90EF90DF90CF90BF90AF907F906F90E7
:1001A0005F904F9008950E9466000E944B000E944D
:1001B0006A000F2EFAEF9F2EF02DC8E8D0E080E005
:1001C0000E945200882799271F921F921F929F9288
:1001D0000F2EF0E7AF2EB12CC12CD12CF02DE12C3D
:1001E00014E0F12E00E010E020E030E0A9010E94D0
:1001F0008E000F900F900F900F9079836883DFCF60
:10020000DB018F939F930E942C01BF91AF91A29F1E
:10021000800D911DA39F900DB29F900D1124089504
:10022000052E97FB16F4009407D057FD0DD00E94C1
:10023000370107FC09D07EF4909580957095619503
:100240007F4F8F4F9F4F0895509540953095219542
:100250003F4F4F4F5F4F08950E945901A59F900D4A
:10026000B49F900DA49F800D911D11240895A1E2CB
:100270001A2EAA1BBB1BFD010DC0AA1FBB1FEE1F20
:10028000FF1FA217B307E407F50720F0A21BB30B6B
:10029000E40BF50B661F771F881F991F1A9469F7E7
:1002A00060957095809590959B01AC01BD01CF0143
:1002B0000895A29FB001B39FC001A39F01D0B29F38
:0E02C000700D811D1124911D0895F894FFCF3B
:00000001FF
