:100000000C9434000C9469000C9449000C94490041
:100010000C9449000C9449000C9449000C9449003C
:100020000C9449000C9449000C9449000C9449002C
:100030000C9449000C9449000C9449000C9449001C
:100040000C9449000C9449000C9449000C9449000C
:100050000C9449000C9449000C9449000C944900FC
:100060000C9449000C94490011241FBECFEFD8E036
:10007000DEBFCDBF11E0A0E0B1E0E4E3F1E002C0FB
:1000800005900D92A230B107D9F70E948D000C9413
:1000900098000C9400008FEF84B915B80895E0E83B
:1000A000F0E080818260808380818068808387E83F
:1000B00093E1909387008093860081EE90E0909387
:1000C000890080938800E1E8F0E080818B61808383
:1000D00008951F920F920FB60F9211248F93489993
:1000E00004C080910001883050F4489B04C0809186
:1000F0000001853240F08091000185B908C081502F
:1001000080930001F2CF8F5F80930001F4CF8F9135
:100110000F900FBE0F901F9018950E944B000E94E9
:100120004F00E8E8F0E084EF91E091838083FDCF19
:04013000F894FFCF71
:020134000700C2
:00000001FF
